:100000000A128A11FC2F00308A000408840A820731
:1000100000343F3406345B344F3466346D347D3401
:0600200007347F346F3449
:100F9400831603138801831203138801F301730872
:100FA400013E84000A128A1103200A128A11831254
:100FB400031388000B30F2002630F1005D30F0009E
:100FC400F00BE22FF10BE22FF20BE22FE92F0B30A3
:100FD4007302031CEE2FEF2FF02FF3010130F30700
:100FE4000A307302031CF72FF82FD12FD02F0A12C7
:0C0FF4008A11002883010A128A11CA2FFA
:04400E00F12FFF3F50
:00000001FF
